{
  "contractName": "TokenVesting",
  "abi": [
    {
      "inputs": [
        {
          "internalType": "address",
          "name": "beneficiary",
          "type": "address"
        },
        {
          "internalType": "uint256",
          "name": "start",
          "type": "uint256"
        },
        {
          "internalType": "uint256",
          "name": "cliffDuration",
          "type": "uint256"
        },
        {
          "internalType": "uint256",
          "name": "duration",
          "type": "uint256"
        },
        {
          "internalType": "bool",
          "name": "revocable",
          "type": "bool"
        },
        {
          "internalType": "address",
          "name": "owner",
          "type": "address"
        }
      ],
      "stateMutability": "nonpayable",
      "type": "constructor"
    },
    {
      "anonymous": false,
      "inputs": [
        {
          "indexed": true,
          "internalType": "address",
          "name": "previousOwner",
          "type": "address"
        },
        {
          "indexed": true,
          "internalType": "address",
          "name": "newOwner",
          "type": "address"
        }
      ],
      "name": "OwnershipTransferred",
      "type": "event"
    },
    {
      "anonymous": false,
      "inputs": [
        {
          "indexed": false,
          "internalType": "address",
          "name": "token",
          "type": "address"
        }
      ],
      "name": "TokenVestingRevoked",
      "type": "event"
    },
    {
      "anonymous": false,
      "inputs": [
        {
          "indexed": false,
          "internalType": "address",
          "name": "token",
          "type": "address"
        },
        {
          "indexed": false,
          "internalType": "uint256",
          "name": "amount",
          "type": "uint256"
        }
      ],
      "name": "TokensReleased",
      "type": "event"
    },
    {
      "inputs": [],
      "name": "owner",
      "outputs": [
        {
          "internalType": "address",
          "name": "",
          "type": "address"
        }
      ],
      "stateMutability": "view",
      "type": "function"
    },
    {
      "inputs": [],
      "name": "renounceOwnership",
      "outputs": [],
      "stateMutability": "nonpayable",
      "type": "function"
    },
    {
      "inputs": [
        {
          "internalType": "address",
          "name": "newOwner",
          "type": "address"
        }
      ],
      "name": "transferOwnership",
      "outputs": [],
      "stateMutability": "nonpayable",
      "type": "function"
    },
    {
      "inputs": [],
      "name": "beneficiary",
      "outputs": [
        {
          "internalType": "address",
          "name": "",
          "type": "address"
        }
      ],
      "stateMutability": "view",
      "type": "function"
    },
    {
      "inputs": [],
      "name": "cliff",
      "outputs": [
        {
          "internalType": "uint256",
          "name": "",
          "type": "uint256"
        }
      ],
      "stateMutability": "view",
      "type": "function"
    },
    {
      "inputs": [],
      "name": "start",
      "outputs": [
        {
          "internalType": "uint256",
          "name": "",
          "type": "uint256"
        }
      ],
      "stateMutability": "view",
      "type": "function"
    },
    {
      "inputs": [],
      "name": "duration",
      "outputs": [
        {
          "internalType": "uint256",
          "name": "",
          "type": "uint256"
        }
      ],
      "stateMutability": "view",
      "type": "function"
    },
    {
      "inputs": [],
      "name": "revocable",
      "outputs": [
        {
          "internalType": "bool",
          "name": "",
          "type": "bool"
        }
      ],
      "stateMutability": "view",
      "type": "function"
    },
    {
      "inputs": [
        {
          "internalType": "address",
          "name": "token",
          "type": "address"
        }
      ],
      "name": "released",
      "outputs": [
        {
          "internalType": "uint256",
          "name": "",
          "type": "uint256"
        }
      ],
      "stateMutability": "view",
      "type": "function"
    },
    {
      "inputs": [
        {
          "internalType": "address",
          "name": "token",
          "type": "address"
        }
      ],
      "name": "revoked",
      "outputs": [
        {
          "internalType": "bool",
          "name": "",
          "type": "bool"
        }
      ],
      "stateMutability": "view",
      "type": "function"
    },
    {
      "inputs": [
        {
          "internalType": "contract IBEP20",
          "name": "token",
          "type": "address"
        }
      ],
      "name": "vestedAmount",
      "outputs": [
        {
          "internalType": "uint256",
          "name": "",
          "type": "uint256"
        }
      ],
      "stateMutability": "view",
      "type": "function"
    },
    {
      "inputs": [
        {
          "internalType": "contract IBEP20",
          "name": "token",
          "type": "address"
        }
      ],
      "name": "release",
      "outputs": [],
      "stateMutability": "nonpayable",
      "type": "function"
    },
    {
      "inputs": [
        {
          "internalType": "contract IBEP20",
          "name": "token",
          "type": "address"
        }
      ],
      "name": "revoke",
      "outputs": [],
      "stateMutability": "nonpayable",
      "type": "function"
    }
  ],
  "bytecode": "0x60806040523480156200001157600080fd5b5060405162001b9438038062001b94833981810160405260c08110156200003757600080fd5b8101908080519060200190929190805190602001909291908051906020019092919080519060200190929190805190602001909291908051906020019092919050505060006200008c6200039d60201b60201c565b9050806000806101000a81548173ffffffffffffffffffffffffffffffffffffffff021916908373ffffffffffffffffffffffffffffffffffffffff1602179055508073ffffffffffffffffffffffffffffffffffffffff16600073ffffffffffffffffffffffffffffffffffffffff167f8be0079c531659141344cd1fd0a4f28419497f9722a3daafe3b4186f6b6457e060405160405180910390a350600073ffffffffffffffffffffffffffffffffffffffff168673ffffffffffffffffffffffffffffffffffffffff161415620001b2576040517f08c379a000000000000000000000000000000000000000000000000000000000815260040180806020018281038252602d81526020018062001b16602d913960400191505060405180910390fd5b828411156200020d576040517f08c379a000000000000000000000000000000000000000000000000000000000815260040180806020018281038252602b81526020018062001b69602b913960400191505060405180910390fd5b6000831162000284576040517f08c379a000000000000000000000000000000000000000000000000000000000815260040180806020018281038252601b8152602001807f546f6b656e56657374696e673a206475726174696f6e2069732030000000000081525060200191505060405180910390fd5b426200029f8487620003a560201b62000c7b1790919060201c565b11620002f7576040517f08c379a000000000000000000000000000000000000000000000000000000000815260040180806020018281038252602f81526020018062001ae7602f913960400191505060405180910390fd5b85600160006101000a81548173ffffffffffffffffffffffffffffffffffffffff021916908373ffffffffffffffffffffffffffffffffffffffff16021790555081600560006101000a81548160ff02191690831515021790555082600481905550620003738486620003a560201b62000c7b1790919060201c565b6002819055508460038190555062000391816200042e60201b60201c565b50505050505062000658565b600033905090565b60008082840190508381101562000424576040517f08c379a000000000000000000000000000000000000000000000000000000000815260040180806020018281038252601b8152602001807f536166654d6174683a206164646974696f6e206f766572666c6f77000000000081525060200191505060405180910390fd5b8091505092915050565b6200043e6200039d60201b60201c565b73ffffffffffffffffffffffffffffffffffffffff1660008054906101000a900473ffffffffffffffffffffffffffffffffffffffff1673ffffffffffffffffffffffffffffffffffffffff1614620004ff576040517f08c379a00000000000000000000000000000000000000000000000000000000081526004018080602001828103825260208152602001807f4f776e61626c653a2063616c6c6572206973206e6f7420746865206f776e657281525060200191505060405180910390fd5b62000510816200051360201b60201c565b50565b600073ffffffffffffffffffffffffffffffffffffffff168173ffffffffffffffffffffffffffffffffffffffff1614156200059b576040517f08c379a000000000000000000000000000000000000000000000000000000000815260040180806020018281038252602681526020018062001b436026913960400191505060405180910390fd5b8073ffffffffffffffffffffffffffffffffffffffff1660008054906101000a900473ffffffffffffffffffffffffffffffffffffffff1673ffffffffffffffffffffffffffffffffffffffff167f8be0079c531659141344cd1fd0a4f28419497f9722a3daafe3b4186f6b6457e060405160405180910390a3806000806101000a81548173ffffffffffffffffffffffffffffffffffffffff021916908373ffffffffffffffffffffffffffffffffffffffff16021790555050565b61147f80620006686000396000f3fe608060405234801561001057600080fd5b50600436106100cf5760003560e01c806374a8f1031161008c5780639852595c116100665780639852595c14610282578063be9a6555146102da578063f2fde38b146102f8578063fa01dc061461033c576100cf565b806374a8f103146101ea578063872a78101461022e5780638da5cb5b1461024e576100cf565b80630fb5a6b4146100d457806313d033c0146100f25780631916558714610110578063384711cc1461015457806338af3eed146101ac578063715018a6146101e0575b600080fd5b6100dc610396565b6040518082815260200191505060405180910390f35b6100fa6103a0565b6040518082815260200191505060405180910390f35b6101526004803603602081101561012657600080fd5b81019080803573ffffffffffffffffffffffffffffffffffffffff1690602001909291905050506103aa565b005b6101966004803603602081101561016a57600080fd5b81019080803573ffffffffffffffffffffffffffffffffffffffff169060200190929190505050610568565b6040518082815260200191505060405180910390f35b6101b461057a565b604051808273ffffffffffffffffffffffffffffffffffffffff16815260200191505060405180910390f35b6101e86105a4565b005b61022c6004803603602081101561020057600080fd5b81019080803573ffffffffffffffffffffffffffffffffffffffff16906020019092919050505061072a565b005b610236610abe565b60405180821515815260200191505060405180910390f35b610256610ad5565b604051808273ffffffffffffffffffffffffffffffffffffffff16815260200191505060405180910390f35b6102c46004803603602081101561029857600080fd5b81019080803573ffffffffffffffffffffffffffffffffffffffff169060200190929190505050610afe565b6040518082815260200191505060405180910390f35b6102e2610b47565b6040518082815260200191505060405180910390f35b61033a6004803603602081101561030e57600080fd5b81019080803573ffffffffffffffffffffffffffffffffffffffff169060200190929190505050610b51565b005b61037e6004803603602081101561035257600080fd5b81019080803573ffffffffffffffffffffffffffffffffffffffff169060200190929190505050610c25565b60405180821515815260200191505060405180910390f35b6000600454905090565b6000600254905090565b60006103b582610d03565b90506000811161042d576040517f08c379a000000000000000000000000000000000000000000000000000000000815260040180806020018281038252601f8152602001807f546f6b656e56657374696e673a206e6f20746f6b656e7320617265206475650081525060200191505060405180910390fd5b61047f81600660008573ffffffffffffffffffffffffffffffffffffffff1673ffffffffffffffffffffffffffffffffffffffff16815260200190815260200160002054610c7b90919063ffffffff16565b600660008473ffffffffffffffffffffffffffffffffffffffff1673ffffffffffffffffffffffffffffffffffffffff1681526020019081526020016000208190555061050f600160009054906101000a900473ffffffffffffffffffffffffffffffffffffffff16828473ffffffffffffffffffffffffffffffffffffffff16610d669092919063ffffffff16565b7fc7798891864187665ac6dd119286e44ec13f014527aeeb2b8eb3fd413df931798282604051808373ffffffffffffffffffffffffffffffffffffffff1681526020018281526020019250505060405180910390a15050565b600061057382610e20565b9050919050565b6000600160009054906101000a900473ffffffffffffffffffffffffffffffffffffffff16905090565b6105ac610ff4565b73ffffffffffffffffffffffffffffffffffffffff1660008054906101000a900473ffffffffffffffffffffffffffffffffffffffff1673ffffffffffffffffffffffffffffffffffffffff161461066c576040517f08c379a00000000000000000000000000000000000000000000000000000000081526004018080602001828103825260208152602001807f4f776e61626c653a2063616c6c6572206973206e6f7420746865206f776e657281525060200191505060405180910390fd5b600073ffffffffffffffffffffffffffffffffffffffff1660008054906101000a900473ffffffffffffffffffffffffffffffffffffffff1673ffffffffffffffffffffffffffffffffffffffff167f8be0079c531659141344cd1fd0a4f28419497f9722a3daafe3b4186f6b6457e060405160405180910390a360008060006101000a81548173ffffffffffffffffffffffffffffffffffffffff021916908373ffffffffffffffffffffffffffffffffffffffff160217905550565b610732610ff4565b73ffffffffffffffffffffffffffffffffffffffff1660008054906101000a900473ffffffffffffffffffffffffffffffffffffffff1673ffffffffffffffffffffffffffffffffffffffff16146107f2576040517f08c379a00000000000000000000000000000000000000000000000000000000081526004018080602001828103825260208152602001807f4f776e61626c653a2063616c6c6572206973206e6f7420746865206f776e657281525060200191505060405180910390fd5b600560009054906101000a900460ff16610874576040517f08c379a000000000000000000000000000000000000000000000000000000000815260040180806020018281038252601b8152602001807f546f6b656e56657374696e673a2063616e6e6f74207265766f6b65000000000081525060200191505060405180910390fd5b600760008273ffffffffffffffffffffffffffffffffffffffff1673ffffffffffffffffffffffffffffffffffffffff16815260200190815260200160002060009054906101000a900460ff1615610917576040517f08c379a00000000000000000000000000000000000000000000000000000000081526004018080602001828103825260238152602001806114276023913960400191505060405180910390fd5b60008173ffffffffffffffffffffffffffffffffffffffff166370a08231306040518263ffffffff1660e01b8152600401808273ffffffffffffffffffffffffffffffffffffffff16815260200191505060206040518083038186803b15801561098057600080fd5b505afa158015610994573d6000803e3d6000fd5b505050506040513d60208110156109aa57600080fd5b8101908080519060200190929190505050905060006109c883610d03565b905060006109df8284610ffc90919063ffffffff16565b90506001600760008673ffffffffffffffffffffffffffffffffffffffff1673ffffffffffffffffffffffffffffffffffffffff16815260200190815260200160002060006101000a81548160ff021916908315150217905550610a6b610a44610ad5565b828673ffffffffffffffffffffffffffffffffffffffff16610d669092919063ffffffff16565b7f39983c6d4d174a7aee564f449d4a5c3c7ac9649d72b7793c56901183996f8af684604051808273ffffffffffffffffffffffffffffffffffffffff16815260200191505060405180910390a150505050565b6000600560009054906101000a900460ff16905090565b60008060009054906101000a900473ffffffffffffffffffffffffffffffffffffffff16905090565b6000600660008373ffffffffffffffffffffffffffffffffffffffff1673ffffffffffffffffffffffffffffffffffffffff168152602001908152602001600020549050919050565b6000600354905090565b610b59610ff4565b73ffffffffffffffffffffffffffffffffffffffff1660008054906101000a900473ffffffffffffffffffffffffffffffffffffffff1673ffffffffffffffffffffffffffffffffffffffff1614610c19576040517f08c379a00000000000000000000000000000000000000000000000000000000081526004018080602001828103825260208152602001807f4f776e61626c653a2063616c6c6572206973206e6f7420746865206f776e657281525060200191505060405180910390fd5b610c2281611046565b50565b6000600760008373ffffffffffffffffffffffffffffffffffffffff1673ffffffffffffffffffffffffffffffffffffffff16815260200190815260200160002060009054906101000a900460ff169050919050565b600080828401905083811015610cf9576040517f08c379a000000000000000000000000000000000000000000000000000000000815260040180806020018281038252601b8152602001807f536166654d6174683a206164646974696f6e206f766572666c6f77000000000081525060200191505060405180910390fd5b8091505092915050565b6000610d5f600660008473ffffffffffffffffffffffffffffffffffffffff1673ffffffffffffffffffffffffffffffffffffffff16815260200190815260200160002054610d5184610e20565b610ffc90919063ffffffff16565b9050919050565b8273ffffffffffffffffffffffffffffffffffffffff1663a9059cbb83836040518363ffffffff1660e01b8152600401808373ffffffffffffffffffffffffffffffffffffffff16815260200182815260200192505050602060405180830381600087803b158015610dd757600080fd5b505af1158015610deb573d6000803e3d6000fd5b505050506040513d6020811015610e0157600080fd5b8101908080519060200190929190505050610e1b57600080fd5b505050565b6000808273ffffffffffffffffffffffffffffffffffffffff166370a08231306040518263ffffffff1660e01b8152600401808273ffffffffffffffffffffffffffffffffffffffff16815260200191505060206040518083038186803b158015610e8a57600080fd5b505afa158015610e9e573d6000803e3d6000fd5b505050506040513d6020811015610eb457600080fd5b810190808051906020019092919050505090506000610f1b600660008673ffffffffffffffffffffffffffffffffffffffff1673ffffffffffffffffffffffffffffffffffffffff1681526020019081526020016000205483610c7b90919063ffffffff16565b9050600254421015610f3257600092505050610fef565b610f49600454600354610c7b90919063ffffffff16565b42101580610fa05750600760008573ffffffffffffffffffffffffffffffffffffffff1673ffffffffffffffffffffffffffffffffffffffff16815260200190815260200160002060009054906101000a900460ff165b15610faf578092505050610fef565b610fea600454610fdc610fcd60035442610ffc90919063ffffffff16565b8461118990919063ffffffff16565b61120f90919063ffffffff16565b925050505b919050565b600033905090565b600061103e83836040518060400160405280601e81526020017f536166654d6174683a207375627472616374696f6e206f766572666c6f770000815250611259565b905092915050565b600073ffffffffffffffffffffffffffffffffffffffff168173ffffffffffffffffffffffffffffffffffffffff1614156110cc576040517f08c379a00000000000000000000000000000000000000000000000000000000081526004018080602001828103825260268152602001806113e06026913960400191505060405180910390fd5b8073ffffffffffffffffffffffffffffffffffffffff1660008054906101000a900473ffffffffffffffffffffffffffffffffffffffff1673ffffffffffffffffffffffffffffffffffffffff167f8be0079c531659141344cd1fd0a4f28419497f9722a3daafe3b4186f6b6457e060405160405180910390a3806000806101000a81548173ffffffffffffffffffffffffffffffffffffffff021916908373ffffffffffffffffffffffffffffffffffffffff16021790555050565b60008083141561119c5760009050611209565b60008284029050828482816111ad57fe5b0414611204576040517f08c379a00000000000000000000000000000000000000000000000000000000081526004018080602001828103825260218152602001806114066021913960400191505060405180910390fd5b809150505b92915050565b600061125183836040518060400160405280601a81526020017f536166654d6174683a206469766973696f6e206279207a65726f000000000000815250611319565b905092915050565b6000838311158290611306576040517f08c379a00000000000000000000000000000000000000000000000000000000081526004018080602001828103825283818151815260200191508051906020019080838360005b838110156112cb5780820151818401526020810190506112b0565b50505050905090810190601f1680156112f85780820380516001836020036101000a031916815260200191505b509250505060405180910390fd5b5060008385039050809150509392505050565b600080831182906113c5576040517f08c379a00000000000000000000000000000000000000000000000000000000081526004018080602001828103825283818151815260200191508051906020019080838360005b8381101561138a57808201518184015260208101905061136f565b50505050905090810190601f1680156113b75780820380516001836020036101000a031916815260200191505b509250505060405180910390fd5b5060008385816113d157fe5b04905080915050939250505056fe4f776e61626c653a206e6577206f776e657220697320746865207a65726f2061646472657373536166654d6174683a206d756c7469706c69636174696f6e206f766572666c6f77546f6b656e56657374696e673a20746f6b656e20616c7265616479207265766f6b6564a264697066735822122021ed2bebdc963ae9e5915ad5e8cf49b319e68171c1befed7505cca931a872f8c64736f6c634300060c0033546f6b656e56657374696e673a2066696e616c2074696d65206973206265666f72652063757272656e742074696d65546f6b656e56657374696e673a2062656e656669636961727920697320746865207a65726f20616464726573734f776e61626c653a206e6577206f776e657220697320746865207a65726f2061646472657373546f6b656e56657374696e673a20636c696666206973206c6f6e676572207468616e206475726174696f6e",
  "immutableReferences": {},
  "source": "// SPDX-License-Identifier: UNLICENSED\npragma solidity ^0.6.8;\n\nimport './libs/SafeBEP20.sol';\nimport './libs/Ownable.sol';\nimport './libs/SafeMath.sol';\n\n/**\n * @title TokenVesting\n * @dev A token holder contract that can release its token balance gradually like a\n * typical vesting scheme, with a cliff and vesting period. Optionally revocable by the\n * owner.\n */\ncontract TokenVesting is Ownable {\n  // The vesting schedule is time-based (i.e. using block timestamps as opposed to e.g. block numbers), and is\n  // therefore sensitive to timestamp manipulation (which is something miners can do, to a certain degree). Therefore,\n  // it is recommended to avoid using short time durations (less than a minute). Typical vesting schemes, with a\n  // cliff period of a year and a duration of four years, are safe to use.\n  // solhint-disable not-rely-on-time\n\n  using SafeMath for uint256;\n  using SafeBEP20 for IBEP20;\n\n  event TokensReleased(address token, uint256 amount);\n  event TokenVestingRevoked(address token);\n\n  // beneficiary of tokens after they are released\n  address private _beneficiary;\n\n  // Durations and timestamps are expressed in UNIX time, the same units as block.timestamp.\n  uint256 private _cliff;\n  uint256 private _start;\n  uint256 private _duration;\n\n  bool private _revocable;\n\n  mapping(address => uint256) private _released;\n  mapping(address => bool) private _revoked;\n\n  /**\n   * @dev Creates a vesting contract that vests its balance of any ERC20 token to the\n   * beneficiary, gradually in a linear fashion until start + duration. By then all\n   * of the balance will have vested.\n   * @param beneficiary address of the beneficiary to whom vested tokens are transferred\n   * @param cliffDuration duration in seconds of the cliff in which tokens will begin to vest\n   * @param start the time (as Unix time) at which point vesting starts\n   * @param duration duration in seconds of the period in which the tokens will vest\n   * @param revocable whether the vesting is revocable or not\n   */\n  constructor(\n    address beneficiary,\n    uint256 start,\n    uint256 cliffDuration,\n    uint256 duration,\n    bool revocable,\n    address owner\n  ) public {\n    require(\n      beneficiary != address(0),\n      'TokenVesting: beneficiary is the zero address'\n    );\n    // solhint-disable-next-line max-line-length\n    require(\n      cliffDuration <= duration,\n      'TokenVesting: cliff is longer than duration'\n    );\n    require(duration > 0, 'TokenVesting: duration is 0');\n    // solhint-disable-next-line max-line-length\n    require(\n      start.add(duration) > block.timestamp,\n      'TokenVesting: final time is before current time'\n    );\n\n    _beneficiary = beneficiary;\n    _revocable = revocable;\n    _duration = duration;\n    _cliff = start.add(cliffDuration);\n    _start = start;\n\n    transferOwnership(owner);\n  }\n\n  /**\n   * @return the beneficiary of the tokens.\n   */\n  function beneficiary() public view returns (address) {\n    return _beneficiary;\n  }\n\n  /**\n   * @return the cliff time of the token vesting.\n   */\n  function cliff() public view returns (uint256) {\n    return _cliff;\n  }\n\n  /**\n   * @return the start time of the token vesting.\n   */\n  function start() public view returns (uint256) {\n    return _start;\n  }\n\n  /**\n   * @return the duration of the token vesting.\n   */\n  function duration() public view returns (uint256) {\n    return _duration;\n  }\n\n  /**\n   * @return true if the vesting is revocable.\n   */\n  function revocable() public view returns (bool) {\n    return _revocable;\n  }\n\n  /**\n   * @return the amount of the token released.\n   */\n  function released(address token) public view returns (uint256) {\n    return _released[token];\n  }\n\n  /**\n   * @return true if the token is revoked.\n   */\n  function revoked(address token) public view returns (bool) {\n    return _revoked[token];\n  }\n\n  /**\n   * @return the amount of the token vested.\n   */\n  function vestedAmount(IBEP20 token) public view returns (uint256) {\n    return _vestedAmount(token);\n  }\n\n  /**\n   * @notice Transfers vested tokens to beneficiary.\n   * @param token ERC20 token which is being vested\n   */\n  function release(IBEP20 token) public {\n    uint256 unreleased = _releasableAmount(token);\n\n    require(unreleased > 0, 'TokenVesting: no tokens are due');\n\n    _released[address(token)] = _released[address(token)].add(unreleased);\n\n    token.safeTransfer(_beneficiary, unreleased);\n\n    emit TokensReleased(address(token), unreleased);\n  }\n\n  /**\n   * @notice Allows the owner to revoke the vesting. Tokens already vested\n   * remain in the contract, the rest are returned to the owner.\n   * @param token ERC20 token which is being vested\n   */\n  function revoke(IBEP20 token) public onlyOwner {\n    require(_revocable, 'TokenVesting: cannot revoke');\n    require(!_revoked[address(token)], 'TokenVesting: token already revoked');\n\n    uint256 balance = token.balanceOf(address(this));\n\n    uint256 unreleased = _releasableAmount(token);\n    uint256 refund = balance.sub(unreleased);\n\n    _revoked[address(token)] = true;\n\n    token.safeTransfer(owner(), refund);\n\n    emit TokenVestingRevoked(address(token));\n  }\n\n  /**\n   * @dev Calculates the amount that has already vested but hasn't been released yet.\n   * @param token ERC20 token which is being vested\n   */\n  function _releasableAmount(IBEP20 token) private view returns (uint256) {\n    return _vestedAmount(token).sub(_released[address(token)]);\n  }\n\n  /**\n   * @dev Calculates the amount that has already vested.\n   * @param token ERC20 token which is being vested\n   */\n  function _vestedAmount(IBEP20 token) private view returns (uint256) {\n    uint256 currentBalance = token.balanceOf(address(this));\n    uint256 totalBalance = currentBalance.add(_released[address(token)]);\n\n    if (block.timestamp < _cliff) {\n      return 0;\n    } else if (\n      block.timestamp >= _start.add(_duration) || _revoked[address(token)]\n    ) {\n      return totalBalance;\n    } else {\n      return totalBalance.mul(block.timestamp.sub(_start)).div(_duration);\n    }\n  }\n}\n",
  "sourcePath": "/Users/albertchen/development/refinable/contracts-tge/contracts/TokenVesting.sol",
  "compiler": {
    "name": "solc",
    "version": "0.6.12+commit.27d51765.Emscripten.clang"
  },
  "schemaVersion": "3.3.4",
  "updatedAt": "2021-03-24T17:59:31.786Z",
  "devdoc": {
    "details": "A token holder contract that can release its token balance gradually like a typical vesting scheme, with a cliff and vesting period. Optionally revocable by the owner.",
    "kind": "dev",
    "methods": {
      "beneficiary()": {
        "returns": {
          "_0": "the beneficiary of the tokens."
        }
      },
      "cliff()": {
        "returns": {
          "_0": "the cliff time of the token vesting."
        }
      },
      "constructor": {
        "details": "Creates a vesting contract that vests its balance of any ERC20 token to the beneficiary, gradually in a linear fashion until start + duration. By then all of the balance will have vested.",
        "params": {
          "beneficiary": "address of the beneficiary to whom vested tokens are transferred",
          "cliffDuration": "duration in seconds of the cliff in which tokens will begin to vest",
          "duration": "duration in seconds of the period in which the tokens will vest",
          "revocable": "whether the vesting is revocable or not",
          "start": "the time (as Unix time) at which point vesting starts"
        }
      },
      "duration()": {
        "returns": {
          "_0": "the duration of the token vesting."
        }
      },
      "owner()": {
        "details": "Returns the address of the current owner."
      },
      "release(address)": {
        "params": {
          "token": "ERC20 token which is being vested"
        }
      },
      "released(address)": {
        "returns": {
          "_0": "the amount of the token released."
        }
      },
      "renounceOwnership()": {
        "details": "Leaves the contract without owner. It will not be possible to call `onlyOwner` functions anymore. Can only be called by the current owner. NOTE: Renouncing ownership will leave the contract without an owner, thereby removing any functionality that is only available to the owner."
      },
      "revocable()": {
        "returns": {
          "_0": "true if the vesting is revocable."
        }
      },
      "revoke(address)": {
        "params": {
          "token": "ERC20 token which is being vested"
        }
      },
      "revoked(address)": {
        "returns": {
          "_0": "true if the token is revoked."
        }
      },
      "start()": {
        "returns": {
          "_0": "the start time of the token vesting."
        }
      },
      "transferOwnership(address)": {
        "details": "Transfers ownership of the contract to a new account (`newOwner`). Can only be called by the current owner."
      },
      "vestedAmount(address)": {
        "returns": {
          "_0": "the amount of the token vested."
        }
      }
    },
    "title": "TokenVesting",
    "version": 1
  },
  "userdoc": {
    "kind": "user",
    "methods": {
      "release(address)": {
        "notice": "Transfers vested tokens to beneficiary."
      },
      "revoke(address)": {
        "notice": "Allows the owner to revoke the vesting. Tokens already vested remain in the contract, the rest are returned to the owner."
      }
    },
    "version": 1
  }
}